:020000040800F2
:100000009804002005010008970700088F070008E2
:100010009307000869060008571100080000000057
:10002000000000000000000000000000F50B0008C8
:100030006D06000800000000DD0A0008E10C000861
:100040001F0100081F0100081F0100081F01000810
:100050001F0100081F0100081F0100081F01000800
:100060001F0100081F0100081F0100081F010008F0
:100070001F0100081F0100081F0100081F010008E0
:100080001F0100081F0100081F0100081F010008D0
:100090001F0100081F0100081F0100081F010008C0
:1000A0001F0100081F0100081F0100081F010008B0
:1000B0001F0100081F0100081F0100081F010008A0
:1000C0001F0100081F0100081F0100081F01000890
:1000D0001F010008810E0008B90E0008690F000812
:1000E0001F0100081F0100081F010008DFF810D0E1
:1000F00000F01AFA00480047391A0008AFF30080F0
:10010000980400200648804706480047FEE7FEE7BF
:10011000FEE7FEE7FEE7FEE7FEE7FEE7FEE7FEE7B7
:10012000E50C0008ED00000830B50B460146002044
:100130002022012409E021FA02F59D4205D303FAA9
:1001400002F5491B04FA02F52844151EA2F101022A
:10015000F1DC30BD2DE9F05F0546002092469B465C
:1001600088460646814640241BE0284641464746CD
:10017000224600F0FAF953465A46C01A914110D36C
:1001800011461846224600F0E1F92D1A67EB0108E6
:100190004F4622460120002100F0D8F917EB000954
:1001A0004E41201EA4F10104DFDC484631462A46B8
:1001B0004346BDE8F09F2DE9FE4F804681EA0300EB
:1001C000C00F0C46009021F0004123F00045B8EB31
:1001D0000200A94105D24046214690461C460B46E6
:1001E000024623F00040104347D0270DC7F30A0012
:1001F000C3F30A510290401A019040286BDAC3F30E
:10020000130040F4801B0098924620B10023D2EBEB
:10021000030A63EB0B0B01985946C0F140025046AC
:1002200000F094F906460D4650465946019A00F0F2
:10023000ACF910EB08006141002487EA115284EA0E
:10024000E7731A4340D0009A62B3019A012A4FEA39
:10025000075215DC001B61EB02014FF0004202EA7D
:100260000752CDE90042001C41F5801132462B4671
:1002700000F0ACF903B0BDE8F08F40462146F9E745
:10028000001B61EB0201001C41F5801300185B416B
:100290002018A2F5001747EB030140EAD570B61904
:1002A0006D4111E06D084FEA360645EAC0754FEA28
:1002B0000752001B61EB0201001C41F58011490847
:1002C0004FEA30000019514132462B4603B0BDE8D9
:1002D000F04F00F06CB90098012240000023D0EBF1
:1002E000020263EBE073009821464FEAE074B8EB3A
:1002F000000061EB0401E9E783F000435BE781F074
:10030000004158E72DE9FE4F81EA030404F0004460
:1003100021F0004100944FF0000B23F0004350EA1D
:1003200001045ED052EA03045BD0C3F30A54C1F364
:100330000A552C44A4F2F3340194A0FB0254C1F3F7
:10034000130141F48011C3F3130343F4801301FB41
:10035000024400FB034E840A970A44EA815447EAA8
:100360008357A4FB076802958D0A05FB07854FEAB2
:10037000932C04FB0C542705029D4FEA065847EACC
:100380001637B5EB08056EEB070C870E920E47EAA1
:10039000811742EA8312A7FB0201B6EB0B0164EB63
:1003A00000042B0D43EA0C335E1844EB1C50DA4674
:1003B0005146E7FB0201C5F313044FEA0B3343EA4E
:1003C00014534FEA0432019C43EA0603A4F10C04DF
:1003D0000294009CCDE900B400F0F8F803B0BDE849
:1003E000F08F00200146F9E72DE9F04D81EA030482
:1003F00004F0004B21F0004514464FF0000A23F0B2
:10040000004150EA050220D054EA01021DD0C5F394
:100410000A570246C5F31303C1F31300C1F30A568A
:1004200040F4801543F48013A7EB0608101BD64652
:1004300008F2FD3873EB050002D308F1010801E072
:1004400092185B41B8F1000F03DA00200146BDE8C5
:10045000F08D00204FF48011064684460EE0171BF5
:1004600073EB050705D3121B63EB050306434CEA48
:10047000010C49084FEA300092185B4150EA01072D
:10048000EDD152EA030012D082EA040083EA0501AA
:10049000084305D0101BAB4106D20122002306E021
:1004A00000224FF0004302E06FF0010253101AEBFC
:1004B00006004CEB085110EB0A0041EB0B01BDE8C4
:1004C000F04D00F074B8C1F30A52C1F3130140F2C9
:1004D000FF3341F480119A4202DA0020014670474E
:1004E00040F233439A42A2F2334202DC524200F01D
:1004F0003CB800F02BB8000030B5041E71F10004C8
:1005000004DB4FF00044404264EB0101141E73F120
:10051000000405DB1C464FF00043524263EB04032A
:10052000994208BF904230BD064C074D06E0E06896
:1005300040F0010394E8070098471034AC42F6D32A
:10054000FFF7D8FDC0200008E0200008202A04DBC7
:10055000203A00FA02F1002070479140C2F12003D6
:1005600020FA03F3194390407047202A04DB203A15
:1005700021FA02F00021704721FA02F3D040C2F1C3
:1005800020029140084319467047202A06DBCB170A
:10059000203A41FA02F043EAE07306E041FA02F33E
:1005A000D040C2F12002914008431946704710B56F
:1005B000141E73F1000408DA401C41F10001921886
:1005C0005B411A4301D120F0010010BD2DE9F04D2F
:1005D00092469B4611B1B1FA81F202E0B0FA80F284
:1005E00020329046FFF7B2FF04460F4640EA0A0069
:1005F00041EA0B0153465A46084313D0114653EAC9
:10060000010019D0C8F140025046FFF7AEFF054681
:100610000E46504659464246FFF798FF084305D01C
:10062000012004E020463946BDE8F08D0020054356
:1006300046EAE0762C4337430A986305E40AA0EBC8
:1006400008000022FD0A44EA47540A3002D500207F
:100650000146E9E7010510196941DDE9084500197E
:100660006941BDE8F04DA2E700BFFEE770472DE904
:10067000F041024600250026002000230024002728
:1006800091F803C00CF00F0591F803C00CF0100CAA
:10069000BCF1000F03D091F802C04CEA050591F8B7
:1006A00000C0BCF1000F31D0146800202BE04FF0E7
:1006B000010C0CFA00F3B1F800C00CEA03069E42EC
:1006C00020D183004FF00F0C0CFA03F7BC4305FA5E
:1006D00003FC4CEA040491F803C0BCF1280F06D1D6
:1006E0004FF0010C0CFA00FCC2F814C00AE091F8BB
:1006F00003C0BCF1480F05D14FF0010C0CFA00FC0F
:10070000C2F810C0401C0828D1D31460B1F800C052
:10071000BCF1FF0F34DD546800202EE000F1080C1E
:100720004FF0010808FA0CF3B1F800C00CEA030618
:100730009E4221D183004FF00F0C0CFA03F7BC430B
:1007400005FA03FC4CEA040491F803C0BCF1280F3D
:1007500005D100F1080C08FA0CF8C2F8148091F8E1
:1007600003C0BCF1480F07D100F1080C4FF001089D
:1007700008FA0CF8C2F81080401C0828CED3546048
:10078000BDE8F0810AB1016100E04161704700BF3E
:10079000FEE700BFFEE7704770B5002100230F227F
:1007A000C47804B3154C246804F4E064C4F5E06430
:1007B000210AC1F10403CA40447804FA03F18478A1
:1007C0001440214309010E4C0678A155047804F029
:1007D0001F050124AC4005786D11AD0005F1E02541
:1007E000C5F8004109E0047804F01F050124AC407D
:1007F000044D0678761145F8264070BD0CED00E0FA
:1008000000E400E080E100E070B500240EE000218B
:10081000204600F0E4F8002504E0002000F04EF946
:10082000681CC5B2802DF8DB601CC4B2082CEEDB5E
:1008300070BD000008B50121082000F061F9142006
:100840008DF8030003208DF802004020ADF8000071
:1008500069460A48FFF70BFF8020ADF800006946A3
:100860000648FFF704FF012240210448FFF78AFFF2
:10087000012280210148FFF785FF08BD000C0140DF
:1008800070B50546002417E080202041284008B1BB
:10089000012000E00020024680210E48FFF772FF91
:1008A000012240210B48FFF76DFF0022402109483B
:1008B000FFF768FF601CC4B2082CE5DB0122402171
:1008C0000448FFF75FFF002240210248FFF75AFF6C
:1008D00070BD0000000C014010B5012280210948C4
:1008E000FFF750FF012240210648FFF74BFF00228F
:1008F00080210448FFF746FF002240210148FFF70E
:1009000041FF10BD000C014010B5002280210748B6
:10091000FFF738FF012240210448FFF733FF01228F
:1009200080210248FFF72EFF10BD0000000C01409F
:1009300070B5002406E0002500E06D1CB5F57A7F57
:10094000FBD3641CB4F57A7FF5D3FFF773FFAE20B9
:1009500000F0A4F8D52000F0A1F8802000F09EF867
:10096000A82000F09BF83F2000F098F8D32000F07A
:1009700095F8002000F092F8402000F08FF8A120B8
:1009800000F08CF8C82000F089F8DA2000F086F832
:10099000122000F083F8812000F080F8CF2000F0D2
:1009A0007DF8D92000F07AF8F12000F077F8DB200C
:1009B00000F074F8302000F071F8A42000F06EF818
:1009C000A62000F06BF88D2000F068F8142000F0ED
:1009D00065F8AF2000F062F8FFF716FF70BD70B544
:1009E00005460C4645F0B00000F058F8102141EAE9
:1009F000141000F053F804F00F0000F04FF870BD31
:100A00002DE9F04105460E461746721ED206110E1C
:100A10006A1E5206100EFFF7E2FF002409E0A7F15C
:100A20002001134A02EB0111085D00F047F8601C39
:100A3000C4B2082CF3DB721ED206110E6A1E01230B
:100A400003EB4202D0B2FFF7CAFF00240BE0A7F18C
:100A50002001074A02EB011204F10801505C00F08A
:100A60002DF8601CC4B2082CF1DBBDE8F081000059
:100A7000D01A00082DE9F04107460E46154600241D
:100A800007E02A5D3019C1B23846FFF7B9FF601C94
:100A9000C4B2285D0028F4D1BDE8F08110B5044649
:100AA000FFF71AFF7820FFF7EBFE0020FFF7E8FEC4
:100AB0002046FFF7E5FEFFF727FF10BD10B50446FF
:100AC000FFF70AFF7820FFF7DBFE4020FFF7D8FE94
:100AD0002046FFF7D5FEFFF717FF10BD7047000057
:100AE00029B1064AD2690243044BDA6104E0034AA1
:100AF000D2698243014BDA61704700000010024066
:100B000029B1064A92690243044B9A6104E0034A00
:100B100092698243014B9A617047000000100240C5
:100B200030B500210022002400232D4D6D6805F012
:100B30000C0121B1042905D0082923D105E0294D54
:100B4000056022E0274D05601FE0254D6D6805F426
:100B50007012234D6D6805F48034022505EB924236
:100B60001CB9214D554305600BE01D4D6D6805F422
:100B700000351DB11C4D5543056002E0194D55432C
:100B8000056002E0174D056000BF00BF144D6D68A1
:100B900005F0F0010909154D6B5C0568DD40456005
:100BA0000F4D6D6805F4E061090A104D6B5C4568F6
:100BB000DD4085600A4D6D6805F46051C90A0B4D32
:100BC0006B5C4568DD40C560054D6D6805F44041CE
:100BD000890B074D6B5CC568B5FBF3F5056130BD4E
:100BE0000010024000127A0000093D0000000020C1
:100BF00010000020704710B500F002F810BD000092
:100C00000CB50020019000903348006840F480301B
:100C10003149086000BF3048006800F4003000909F
:100C20000198401C0190009818B90198B0F5A06F88
:100C3000F1D12948006800F4003010B10120009083
:100C400001E0002000900098012843D1234800686B
:100C500040F01000214908600846006820F00300B9
:100C600008600846006840F0020008601A484068C2
:100C7000194948600846406848600846406840F4A2
:100C8000806048600846406820F47C104860084650
:100C9000406840F4E81048600846006840F0807002
:100CA000086000BF0C48006800F000700028F9D010
:100CB0000948406820F0030007494860084640683A
:100CC00040F00200486000BF0348406800F00C009C
:100CD0000828F9D10CBD000000100240002002409D
:100CE0007047000010B51348006840F0010011493A
:100CF000086008464068104908400E4948600846A8
:100D000000680E4908400B4908600846006820F456
:100D1000802008600846406820F4FE0048604FF4D8
:100D20001F008860FFF767FF4FF00060044908600C
:100D300010BD0000001002400000FFF8FFFFF6FEAB
:100D400008ED00E070B1084909880180064949882A
:100D50004180054989888180034989798171002111
:100D6000014A9171704700001C00002000B587B057
:100D700001210420FFF7C4FE01214804FFF7B0FE63
:100D80000420ADF8180018208DF81B0003208DF802
:100D90001A0006A91C48FFF76AFC0820ADF81800E5
:100DA00004208DF81B0006A91748FFF760FC4FF4DC
:100DB000165002900020ADF80C00ADF80E00ADF812
:100DC0001000ADF814000C20ADF8120002A90F4875
:100DD00000F050F926208DF8040002208DF805005F
:100DE0008DF8060001208DF8070001A8FFF7D4FC5C
:100DF000012240F22551054800F017F9012103486E
:100E000000F0DDF807B000BD0008014000440040DC
:100E10000021002004E0134A125C0A44D1B2401CB5
:100E20000828F8DB0F48007A884219D10D48C078AD
:100E30000C4A927840EA02200B4A10800948407917
:100E4000084A127940EA0220074A50800548C079D2
:100E5000044A927940EA0220034A9080012090716E
:100E600070470000280000201C00002000200249DC
:100E700008700249087070472400002025000020F7
:100E800010B540F22551094800F0A5F801280CD111
:100E9000064800F05BF90649487001200549487092
:100EA00040F22551014800F07BF810BD00380140A8
:100EB000140000201800002010B540F225512648EB
:100EC00000F089F8002845D0234800F03FF9C4B26B
:100ED0002248007830B101280ED0022819D003280A
:100EE0002ED126E02C2C06D11D48047001201D496E
:100EF00008701A49087026E0E42C07D1184844709D
:100F00000220184908701549087001E0FFF7AEFF8C
:100F100019E0144801780078401C124A10701048FB
:100F2000445410460078082802DB03200B4908705F
:100F300009E00B480472FFF76BFFFFF797FF02E031
:100F4000FFF794FF00BF00BF40F22551024800F0B8
:100F500027F800BF10BD000000440040250000201D
:100F6000280000202400002010B540F22551094837
:100F700000F031F801280CD1064800F0E7F80649E6
:100F8000C87001200549C87040F22551014800F0A1
:100F900007F810BD00480040140000201800002091
:100FA00010B50022002340F66A14A14200D100BF10
:100FB0000A1201249440A3B2DC43048010BD21B185
:100FC000828942F40052828104E082894DF6FF73E7
:100FD0001A408281704770B5024600240023002524
:100FE000002040F66A16B14200D100BFC1F342159D
:100FF00001F01F03012606FA03F3012D02D19689A1
:10100000334006E0022D02D1168A334001E0968A71
:1010100033400C12012606FA04F41688344013B14A
:101020000CB1012000E0002070BDF0B503460024A3
:1010300000260025002040F66A17B94200D100BF03
:101040001846C1F3421401F01F06012707FA06F5FE
:10105000012C01D10C3004E0022C01D1103000E051
:1010600014301AB107682F43076002E00768AF43E6
:101070000760F0BD2DE9F04786B005460E46002416
:10108000A24600BFA1460027B08900B100BF2F468D
:101090002C8A4CF6FF700440F08804432C82AC8903
:1010A0004EF6F3100440B088318908437189084333
:1010B0000443AC81AC8A4FF6FF400440B08904433E
:1010C000AC8201A8FFF72CFD1F48874202D1DDF852
:1010D00010A001E0DDF80CA0A88900F4004040B1A8
:1010E0000AEBCA0000EB0A1031684900B0FBF1F8C6
:1010F00007E00AEBCA0000EB0A1031688900B0FB78
:10110000F1F86420B8FBF0F004012009642101FB30
:101110001089A88900F4004040B1322000EBC900DA
:10112000B0FBF1F000F00700044308E0322000EBD0
:1011300009106421B0FBF1F000F00F0004432C8192
:1011400006B0BDE8F08700000038014001468888FD
:10115000C0F30800704700BFFEE700000FB4084B63
:1011600010B504A902AA039800F0DEF8044602A90B
:10117000002000F05CFC204610BC5DF814FB000071
:101180002F1A000802E008C8121F08C1002AFAD16D
:1011900070477047002001E001C1121F002AFBD1F7
:1011A000704700002DE9FF5F82B00021DDE90430C7
:1011B000020DDDF840B0034318D044F61050A2F2FF
:1011C000FF3242431514119801281FD0A5EB0B00E4
:1011D000401C5FEA000A4FF000064E4FDFF83891DE
:1011E000B046504615D5CAF1000413E01198012409
:1011F0004AA3012801D16FEA0B010298119AC0E9B4
:101200000031C0E9024206B0BDE8F09FCBF100001A
:10121000DFE704460021404A491842EB0450CDE97B
:10122000001012E0E00707D032463B4640464946F0
:10123000FFF768F88046894632463B461046194615
:10124000FFF760F806460F466410002CEAD1DDE98E
:101250000401DDE90023BAF1000F06DAFFF752F8C6
:1012600042464B46FFF74EF805E0FFF7BDF8424611
:101270004B46FFF7B9F804460E460022284BFFF70D
:101280003BF903D84FF0FF30014607E00022254B21
:1012900020463146FEF78FFFFFF715F9102409E0CD
:1012A000002C0ADB0A220023FEF754FF039B303296
:1012B0001A55641E50EA0102F2D1641C039AC4F16B
:1012C00011031444119A012A03D0012208430DD1BD
:1012D0000AE0084304D000204FF0110B119072E790
:1012E000A3EB0B056D1E0DE05B4504DD4FF0000226
:1012F00005F1010504E003DA4FF00002A5F1010554
:10130000002AECD002981199C0E90231C0E90045E9
:1013100079E70000000014400000F03F30000000BA
:101320000000F0430000E03F2DE9FF4F95B09A46E2
:10133000884606460025EEE1252877D10024274679
:10134000F94A0121039400E0044316F8013F203BD1
:1013500001FA03F01042F7D130782A2811D06FF04B
:101360002F033078A0F13002092A16D8039A44F0EE
:10137000020402EB820203EB42021044761C03904B
:10138000EFE758F8042B0392002A03DA504244F4A2
:101390000054039044F00204761C30782E2816D1B5
:1013A00016F8010F44F004042A280DD06FF02F0224
:1013B0003078A0F13003092B09D807EB870302EB43
:1013C0004303C718761CF3E758F8047B761C307883
:1013D0006C280FD006DC4C2817D068280DD06A285E
:1013E00014D104E0742810D07A280FD10DE044F411
:1013F00000140AE044F4801401E044F440147278CC
:10140000824202D104F58014761C761C307866285E
:101410000BD013DC582877D009DC002875D045287C
:10142000F6D04628F4D047281AD193E118E0632873
:1014300035D0642879D0652812D18BE1702873D01B
:1014400008DC6728F1D069286FD06E280DD06F288E
:1014500006D1ACE073282CD0752874D0782853D0EE
:101460005246179990476D1C54E1C4F3025002286C
:1014700009D003280DD0D8F8001004280DD00D6035
:1014800008F1040846E1D8F80010EA17C1E9005253
:10149000F6E7D8F800100D80F2E70D70F0E718F8C5
:1014A000041B8DF8001000208DF80100EB46012090
:1014B00003E058F804BB4FF0FF3061074FF0000124
:1014C00002D40DE009F101018946B9420FDA8145E4
:1014D000F8DB1BF809100029F4D108E009F101013B
:1014E00089468142FADB1BF809100029F6D10398DE
:1014F0005346A0EB090721463846179A00F080FAB8
:10150000284400EB090507E044E008E10DE01BF882
:10151000010B524617999047B9F10109F7D253468A
:1015200021463846179AF2E039E00A21C4F3025204
:101530004FF0000B0091022A06D058F8040BC11797
:10154000032A09D00AE023E008F1070020F007028F
:10155000F2E80201904605E000B2C117042A01D169
:1015600040B2C117002906DA0A460021404261EB69
:1015700002012D2202E0220504D52B228DF8042041
:10158000012203E0E20701D02022F7E7914657E06D
:101590000A2100E010214FF0000B00910BE0102118
:1015A0004FF0000B44F004040827009103E00820EA
:1015B0004FF0000B0090C4F30252022A05D058F8F5
:1015C000040B0021032A08D008E008F1070020F0EE
:1015D0000702F2E80201904603E080B2042A00D13B
:1015E000C0B24FF0000922072AD53278702A07D0FE
:1015F000DDF800C08CF0100C5CEA0B0C05D00EE09E
:1016000040228DF80420012208E050EA010306D0B0
:1016100030238DF804308DF8052002229146009B7E
:1016200083F0080353EA0B030AD150EA010201D107
:10163000620705D530228DF804204FF001097F1E86
:101640003278582A04D039A20C920CAA02920BE0EC
:101650003BA2F9E75B46009AFEF77CFD0C9B9B5C86
:10166000029A521E0292137050EA0102F2D10298BD
:1016700004A9081A00F1200B600702D524F4803475
:1016800000E001275F4502DDA7EB0B0000E0002032
:1016900000EB0B01009003984944401A0390E003CB
:1016A00006D453462146179A039800F0A9F9054439
:1016B000002706E001A85246C05D179990476D1CAF
:1016C0007F1C4F45F6DBE0030CD553462146179AA5
:1016D000039800F095F9054404E03020524617992C
:1016E00090476D1C0099481E00900029F5DC08E029
:1016F0000298029952460078491C02911799904726
:101700006D1CBBF10001ABF1010BF1DC5BE100F002
:1017100065F90544761C307800287FF40DAE19B0C9
:101720002846BDE8F08F000009280100303132332F
:10173000343536373839616263646566000000000D
:1017400030313233343536373839414243444546F7
:1017500000000000600700D4062708F1070020F011
:101760000700F0E80223804603F0004C5FEA0C001B
:1017700001D097A009E0200501D596A005E0E0077B
:1017800001D095A001E0AFF24C001390307823F027
:10179000004365280CD006DC452809D046281DD01A
:1017A00047287FD13BE0662818D067287AD136E0F9
:1017B0000021112F01DB112000E0781CCDE9000190
:1017C00004A90CA8FFF7EEFCDDE90D010C9A4FF01F
:1017D000000B07F10109109200914EE04FF000401C
:1017E0000097CDE9011004A90CA8FFF7DBFCDDE9A7
:1017F0000D020C9B0F994FF0000B91461093009235
:1018000011B9791C00EB0109B7EB090003D4C0F151
:10181000FF3B07F10109A9EB0700019042E0012F0E
:1018200000DA01270021112F01DD112000E03846E8
:10183000CDE9000104A90CA8FFF7B4FCDDE90D0116
:101840000C9A00914FF0000BB946109221070FD46B
:10185000009A4A4503DA914601E0A9F10109B9F17C
:10186000010F05DD109AA9F10101515C3029F4D076
:10187000B84202DA10F1040F03DA0121CDE90110B8
:1018800010E0002803DC8344A9EB000102E0411CC6
:10189000494500DD8946A0EB0B00401C01904FF04C
:1018A00000400290200705D40198484502DB4FF024
:1018B000FF30019000208DF84B0002980DF14B078E
:1018C000B0F1004F25D002200C902B200D900298F3
:1018D00000280CDA404202902D200D9007E00A21EA
:1018E0000298FEF721FC3031029007F8011D0C9997
:1018F000481E0C900029F2DC02980028EFD1791ED6
:101900000D980870307800F0200040F0450007F88E
:10191000020D11A8C01BC01D02901398007800B1E1
:10192000012000EB0901019801EBE07102980144EC
:101930000398401A401E0390E00306D45346214604
:10194000179A039800F05CF805441398007818B1D2
:101950005246179990476D1CE00323D55346214604
:10196000179A039800F04CF805441BE0BBF1000FF8
:1019700007DB0098584504DD1098179910F80B0004
:1019800001E0179930205246904701980BF1010B66
:10199000401E05F10105019004D12E2052461799F1
:1019A00090476D1CB9F10001A9F10109DEDC05E0E9
:1019B00017F8010B5246179990476D1C0299481E63
:1019C00002900029F4DC53462146179A03989EE6BC
:1019D0002D0000002B000000200000002DE9F04148
:1019E000044600251E461746880404D405E03946FF
:1019F0002020B0476D1C641EF9D52846BDE8F08153
:101A00002DE9F041044600251E469046C80301D545
:101A1000302700E02027880404D505E041463846F9
:101A2000B0476D1C641EF9D52846BDE8F0810A68F0
:101A3000531C0B60107070471CB5FEF779FFFFF761
:101A400095F926E06846FFF77DF99DF8060000B39A
:101A5000BDF800200FA11348FFF780FBBDF802205E
:101A600011A11548FFF77AFBBDF8042013A1174810
:101A7000FFF774FB0B4A01210846FEF7FBFF0E4AF5
:101A800001210220FEF7F6FF104A01210320FEF794
:101A9000F1FFD7E754564F433A2025642075672F4E
:101AA0006D330000310000204843484F3A20256440
:101AB0002075672F6D3300005100002065434F32C1
:101AC0003A2025642070706D000000007100002035
:101AD0000000000000000000000000000000000006
:101AE000000000F80000000000000033300000009B
:101AF00000100C06100C06000000000000000000A2
:101B000040C07840C0784000043F04043F04040013
:101B1000007088FC08300000001820FF211E000023
:101B2000F008F000E018000000211C031E211E0038
:101B300000F00888700000001E21232419272110BE
:101B400010160E0000000000000000000000000061
:101B5000000000E018040200000000071820400008
:101B600000020418E00000000040201807000000F8
:101B7000404080F0804040000202010F010202005C
:101B8000000000F0000000000101011F0101010040
:101B9000000000000000000080B0700000000000A5
:101BA000000000000000000000010101010101012E
:101BB00000000000000000000030300000000000C5
:101BC000000000008060180400601806010000009A
:101BD00000E010080810E000000F102020100F0097
:101BE000001010F8000000000020203F202000001E
:101BF0000070080808887000003028242221300076
:101C000000300888884830000018202020110E007D
:101C10000000C02010F8000000070424243F240026
:101C200000F80888880808000019212020110E00FB
:101C300000E0108888180000000F112020110E000D
:101C400000380808C83808000000003F0000000005
:101C50000070880808887000001C222121221C00C6
:101C600000E010080810E0000000312222110F00EF
:101C7000000000C0C0000000000000303000000084
:101C800000000080000000000000806000000000F4
:101C9000000080402010080000010204081020000D
:101CA0004040404040404000040404040404040058
:101CB00000081020408000000020100804020100ED
:101CC000007048080808F0000000003036010000ED
:101CD000C030C828E810E0000718272423140B00A0
:101CE0000000C038E0000000203C2302022738201A
:101CF00008F8888888700000203F202020110E00FE
:101D0000C0300808080838000718202020100800F4
:101D100008F808080810E000203F202020100F00DD
:101D200008F88888E8081000203F202023201800A9
:101D300008F88888E8081000203F20000300000011
:101D4000C03008080838000007182020221E0200B2
:101D500008F808000008F808203F210101213F2071
:101D6000000808F8080800000020203F202000009C
:101D700000000808F8080800C08080807F0000008C
:101D800008F888C028180800203F200126382000C5
:101D900008F8080000000000203F2020202030002C
:101DA00008F8F800F8F80800203F003F003F200046
:101DB00008F830C00008F808203F200007183F004E
:101DC000E01008080810E0000F10202020100F007D
:101DD00008F808080808F000203F21010101000070
:101DE000E01008080810E0000F18242438504F00B5
:101DF00008F8888888887000203F2000030C302075
:101E000000708808080838000038202121221C00B2
:101E1000180808F8080818000000203F20000000FB
:101E200008F808000008F808001F202020201F00E4
:101E30000878880000C83808000007380E01000044
:101E4000F80800F80008F800033C0700073C03000E
:101E5000081868808068180820302C03032C302074
:101E60000838C800C83808000000203F20000000E3
:101E700010080808C838080020382621202018003B
:101E8000000000FE020202000000007F404040000F
:101E9000000C30C000000000000000010638C00047
:101EA00000020202FE000000004040407F000000EF
:101EB0000000040202020400000000000000000014
:101EC0000000000000000000808080808080808012
:101ED00000020204000000000000000000000000FA
:101EE00000008080808000000019242222223F20F0
:101EF00008F8008080000000003F112020110E0033
:101F00000000008080800000000E112020201100C1
:101F1000000000808088F800000E112020103F2073
:101F20000000808080800000001F222222221300F7
:101F3000008080F0888888180020203F2020000042
:101F40000000808080808000006B949494936000F7
:101F500008F8008080800000203F210000203F2002
:101F600000809898000000000020203F2020000002
:101F7000000000809898000000C08080807F0000F2
:101F800008F8000080808000203F24022D302000CF
:101F9000000808F8000000000020203F202000007A
:101FA0008080808080808000203F20003F20003F94
:101FB0008080008080800000203F210000203F20A2
:101FC0000000808080800000001F202020201F0053
:101FD000808000808000000080FFA12020110E0082
:101FE0000000008080808000000E112020A0FF8073
:101FF000808080008080800020203F212000010020
:102000000000808080808000003324242424190074
:10201000008080E0808000000000001F2020000081
:102020008080000000808000001F202020103F20C2
:10203000808080000080808000010E300806010052
:1020400080800080008080800F300C030C300F00F7
:1020500000808000808080000020312E0E31200022
:10206000808080000080808080818E701806010052
:1020700000808080808080000021302C2221300070
:1020800000000000807C020200000000003F404091
:1020900000000000FF00000000000000FF00000042
:1020A0000002027C800000000040403F0000000071
:1020B000000601010202040400000000000000000C
:1020C000E020000800000020280000008411000823
:1020D0000821000828000020700400009411000866
:1020E00000000000010203040102030406070809BE
:1020F00002040608000000000000000000000000CC
:082100000000000000000000D7
:04000005080000ED02
:00000001FF
